:100000000C945D000C9425050C94FE040C94850062
:100010000C9485000C9485000C9485000C9485004C
:100020000C9485000C9485000C9485000C9485003C
:100030000C9485000C9485000C9485000C9485002C
:100040000C94B4040C9485000C9472050C944C052B
:100050000C9485000C9485000C9485000C9485000C
:100060000C9485000C9485000000000024002700FB
:100070002A0000000000250028002B0004040404CE
:100080000404040402020202020203030303030342
:10009000010204081020408001020408102001021F
:1000A00004081020000000080002010000030407FB
:1000B0000000000000000000370711241FBECFEF32
:1000C000D8E0DEBFCDBF13E0A0E0B1E0EEE0FFE09E
:1000D00002C005900D92AC37B107D9F724E0ACE728
:1000E000B3E001C01D92A839B207E1F710E0CDE5F9
:1000F000D0E004C02197FE010E946B07CC35D107E8
:10010000C9F70E94A4050C9485070C94000090E0A8
:10011000FC01EC55FF4F2491FC01E057FF4F349157
:10012000FC01E458FF4FE491EE2309F43CC0222384
:1001300039F1233091F038F42130A9F0223001F563
:1001400084B58F7D12C0273091F02830A1F0243083
:10015000B9F4809180008F7D03C0809180008F77FB
:10016000809380000DC084B58F7784BD09C08091D5
:10017000B0008F7703C08091B0008F7D8093B00076
:10018000F0E0EE0FFF1FEE58FF4FA591B4919FB71F
:10019000F894611104C08C913095382302C0EC9121
:1001A0003E2B3C939FBF0895CF93DF9390E0FC01DB
:1001B000E057FF4F2491FC01E458FF4F84918823BE
:1001C00061F190E0880F991FFC01E859FF4FC5913C
:1001D000D491FC01EE58FF4FA591B491611109C073
:1001E0009FB7F8948881209582238883EC912E23F1
:1001F0000BC0623061F49FB7F8948881322F30953C
:1002000083238883EC912E2B2C939FBF06C08FB73E
:10021000F894E8812E2B28838FBFDF91CF9108952A
:100220003FB7F8948091F7039091F803A091F903F8
:10023000B091FA0326B5A89B05C02F3F19F001968F
:10024000A11DB11D3FBFBA2FA92F982F8827820F5C
:10025000911DA11DB11DBC01CD0142E0660F771FAC
:10026000881F991F4A95D1F708958F929F92AF9258
:10027000BF92CF92DF92EF92FF920E9410014B014A
:100280005C0188ECC82ED12CE12CF12C0E941001CD
:10029000DC01CB0188199909AA09BB09883E934062
:1002A000A105B10598F321E0C21AD108E108F108CF
:1002B00088EE880E83E0981EA11CB11CC114D104E5
:1002C000E104F10419F7FF90EF90DF90CF90BF9019
:1002D000AF909F908F9008950895CF92DF92EF9204
:1002E000FF920F931F93CF93DF936C017A018B01E1
:1002F000C0E0D0E0CE15DF0581F0D8016D918D0111
:10030000D601ED91FC910190F081E02DC601099597
:10031000892B11F02196EECF7E01C701DF91CF919D
:100320001F910F91FF90EF90DF90CF900895089567
:1003300080E090E00895FC01538D448D252F30E03E
:10034000842F90E0821B930B541710F0CF960895E2
:1003500001970895FC01918D828D981761F0828D2F
:10036000DF01A80FB11D5D968C91928D9F5F9F73E9
:10037000928F90E008958FEF9FEF0895FC01918D8B
:10038000828D981731F0828DE80FF11D858D90E0F8
:1003900008958FEF9FEF0895FC01918D228D892F95
:1003A00090E0805C9F4F821B91098F73992708957D
:1003B0008BEF93E00E94CC0121E0892B09F420E02F
:1003C000822F0895FC01848DDF01A80FB11DA35A6F
:1003D000BF4F2C91848D90E001968F739927848F65
:1003E000A689B7892C93A089B1898C918370806488
:1003F0008C93938D848D981306C00288F389E02D29
:1004000080818F7D80830895EF92FF920F931F93D9
:10041000CF93DF93EC0181E0888F9B8D8C8D9813B7
:1004200005C0E889F989808185FD26C0F62E0B8DEF
:1004300010E00F5F1F4F0F731127E02E8C8DE81215
:100440000CC00FB607FCFACFE889F989808185FFD7
:10045000F5CFCE010E94E201F1CF8B8DFE01E80FB6
:10046000F11DE35AFF4FF0829FB7F8940B8FEA8992
:10047000FB89808180620AC09FB7F894EE89FF896A
:100480006083E889F98980818370806480839FBF5D
:1004900081E090E0DF91CF911F910F91FF90EF905D
:1004A0000895CF93DF93EC01888D8823C9F0EA8902
:1004B000FB89808185FD05C0A889B9898C9186FD5D
:1004C0000FC00FB607FCF5CF808185FFF2CFA8895A
:1004D000B9898C9185FFEDCFCE010E94E201E7CF73
:1004E000DF91CF91089580E090E0892B29F00E9460
:1004F000D80181110C9400000895EF92FF920F93A0
:100500001F93CF93DF938C01EB01F42E60E08BE01F
:100510000E9487006F2D8CE00E948700000F111F42
:10052000000F111F00531D4F2EE0E22E23E0F22E8C
:10053000F80161918F01F70181917F010E9487008D
:10054000F2E1EF16F3E0FF0699F7CC0FDD1FCC0FB9
:10055000DD1FC053DD4F0AE013E06991F80181917E
:100560008F010E948700F3E00E301F07B1F761E0B2
:100570008BE0DF91CF911F910F91FF90EF900C9442
:1005800087000F931F93CF93DF93C0E0D0E000E08C
:1005900010E040E0B801CE010E947D020F5F1F4FC6
:1005A0000A301105B1F72196CA30D10581F7DF91E4
:1005B000CF911F910F9108954F925F926F927F920A
:1005C0008F929F92AF92BF92CF92DF92EF92FF9263
:1005D0000F931F93CF93DF93880F991FFC01E85E61
:1005E000FE4FC080D180D0928103C0928003A09141
:1005F0000001B091010120EA3FE00E94640760938E
:100600007C0370937D0380937E0390937F031C147F
:100610001D048CF54B015C01E601D595C7958E0153
:10062000000F111F000F111F05501109412C512CF3
:1006300032010D2C000CEE08FF08481459046A041E
:100640007B04C8F461E089E00E948700C230D105D4
:100650001CF0C8010197F1F760E089E00E94870073
:10066000C230D1051CF0C8010197F1F74C0C5D1C9C
:100670006E1C7F1CE2CFDF91CF911F910F91FF90F5
:10068000EF90DF90CF90BF90AF909F908F907F9032
:100690006F905F904F900895CF93DF93009779F01C
:1006A000FC0101900020E9F73197AF01481B590B7D
:1006B000BC018BEF93E00E946D01EC0102C0C0E031
:1006C000D0E042E050E062E173E08BEF93E00E9403
:1006D0006D018C0F9D1FDF91CF9108950F931F9394
:1006E000CF93DF9385E480937C0080917A008064CF
:1006F00080937A0080917A0086FDFCCF809178000B
:100700002091790090E0922BECEBF2E0C0E0D0E099
:10071000219131912817390709F092C02FB7F89429
:100720008091F3039091F403A091F503B091F60347
:100730002FBF8093EE039093EF03A093F003B09349
:10074000F1030E94C102A2E0B1E0FD0180E090E06F
:10075000219131912F3F3F4F41F4880F991FFC01A8
:10076000EE5FFE4FD183C08320C001968430910597
:1007700079F7809104019091050190930301809392
:1007800002018091060190910701909305018093E9
:1007900004018091080190910901909307018093D1
:1007A0000601D0930901C093080180918503882335
:1007B00009F18091830390918403FC01EE0FFF1FE8
:1007C000E65FFE4FD183C0830196909384038093AC
:1007D0008303049709F0C1C010928503109284032B
:1007E0001092830385E193E0DF91CF911F910F91E8
:1007F0000C944C038091020190910301019731F513
:100800008091040190910501029701F58091060104
:10081000909107010197D1F480910801909109010D
:100820000297A1F488E393E00E944C0381E0809357
:1008300085038FEF9FEF90931701809316018DC072
:100840002196CA30D10509F063CF87C01091820389
:100850001123A1F0E2E1F1E02D913D91929182917D
:1008600028173907A9F441E0EA30F407A9F782E62E
:1008700093E00E944C03109282035CC0EAE0F1E036
:100880002D913D91819191912817390709F446C026
:1008900088E090E09093010180930001CE010E94D6
:1008A000DC0246E853E084E18C9FB0018D9F700D1F
:1008B000112420E030E001E0C901860F971FFC0100
:1008C000111107C0EC50FE4F80819181E9E0F0E00A
:1008D0000AC0E45DFE4FF8CF1C9297FD01969595F6
:1008E0008795319738F0DA01AE0FBF1F80FFF4CF44
:1008F0000C93F3CF465F5F4F2E5F3F4F243131059E
:10090000D9F6D0931701C09316011092EB03109201
:10091000EA031092ED031092EC031FC081E0AA30AD
:10092000B80709F0ADCF8BE493E00E944C0381E05F
:10093000809382038FEF9FEF9093170180931601AE
:1009400080E490E09093010180930001CE01DF915B
:10095000CF911F910F910C94DC02DF91CF911F91E9
:100960000F9108950E9480071F920F920FB60F9269
:1009700011242F933F938F939F93AF93BF938091B5
:10098000F3039091F403A091F503B091F603309135
:10099000F20323E0230F2D3720F40196A11DB11D92
:1009A00005C026E8230F0296A11DB11D2093F20376
:1009B0008093F3039093F403A093F503B093F603AD
:1009C0008091F7039091F803A091F903B091FA0395
:1009D0000196A11DB11D8093F7039093F803A09396
:1009E000F903B093FA03BF91AF919F918F913F911B
:1009F0002F910F900FBE0F901F9018951F920F927E
:100A00000FB60F9211242F933F934F935F936F93E1
:100A10007F938F939F93AF93BF93EF93FF93E09157
:100A20001401F09115010995FF91EF91BF91AF91DC
:100A30009F918F917F916F915F914F913F912F91F6
:100A40000F900FBE0F901F9018951F920F920FB628
:100A50000F9211242F933F934F935F936F937F9344
:100A60008F939F93AF93BF93EF93FF93E091120106
:100A7000F09113010995FF91EF91BF91AF919F9173
:100A80008F917F916F915F914F913F912F910F9037
:100A90000FBE0F901F9018951F920F920FB60F92D6
:100AA00011242F933F934F935F936F937F938F9373
:100AB0009F93AF93BF93EF93FF938BEF93E00E94CD
:100AC000E201FF91EF91BF91AF919F918F917F9143
:100AD0006F915F914F913F912F910F900FBE0F90AB
:100AE0001F9018951F920F920FB60F9211242F93FB
:100AF0008F939F93EF93FF93E0910B04F0910C047D
:100B00008081E0911104F091120482FD12C0908165
:100B1000809114048F5F8F7320911504821751F018
:100B2000E0911404F0E0E550FC4F958F809314049D
:100B300001C08081FF91EF919F918F912F910F9034
:100B40000FBE0F901F901895789484B5826084BD75
:100B500084B5816084BD85B5826085BD85B58160C1
:100B600085BD80916E00816080936E00109281003F
:100B700080918100826080938100809181008160FA
:100B800080938100809180008160809380008091BB
:100B9000B10084608093B1008091B0008160809347
:100BA000B00080917A00846080937A0080917A000E
:100BB000826080937A0080917A00816080937A00CD
:100BC00080917A00806880937A001092C100CEE014
:100BD000D3E00AE013E061E089910E94D40061E073
:100BE000F80181918F010E94D400F3E0C231DF0748
:100BF00091F761E08BE00E94D40061E08CE00E94FC
:100C0000D40060E083E10E94D4000E94C102C0E0F1
:100C1000D0E000E010E041E0BE01C8010E947D028A
:100C20000F5F1F4F0A301105B1F70E94350100E038
:100C300010E040E0BE01C8010E947D020F5F1F4F1F
:100C40000A301105B1F72196CA30D10511F7C0E07D
:100C5000D0E000E010E041E0B801CE010E947D024A
:100C60000F5F1F4F0A301105B1F70E94350100E0F8
:100C700010E040E0B801CE010E947D020F5F1F4FDF
:100C80000A301105B1F72196CA30D10511F7E0916C
:100C90000B04F0910C0482E08083E0910704F09152
:100CA00008041082E0910904F0910A048FEC80831B
:100CB00010921304E0910F04F091100486E08083F9
:100CC000E0910D04F0910E04808180618083E091B9
:100CD0000D04F0910E04808188608083E0910D0402
:100CE000F0910E04808180688083E0910D04F09182
:100CF0000E0480818F7D808361E089E00E94D400B2
:100D000060E082E00E94D4008EE693E090931301AD
:100D10008093120180916900836080936900E89A52
:100D20001AE0CFEFDFEF8091160190911701019645
:100D300009F49AC02FB7F8948091F3039091F403CB
:100D4000A091F503B091F6032FBF4091EE035091AF
:100D5000EF036091F0037091F103841B950BA60BD8
:100D6000B70B84369105A105B10508F47DC06091EB
:100D7000EA037091EB038091EC039091ED032091D5
:100D8000160130911701189FF001199FF00D1124E1
:100D9000EA57FC4FE60FF71F4081411116C02F3F65
:100DA0005FEF350791F06930710561F401968A3083
:100DB000910519F060E070E0E6CF60E070E02FEFA1
:100DC0003FEFE1CF6F5F7F4FDECF3093170120936E
:100DD00016019093ED038093EC037093EB03609303
:100DE000EA0320911601309117012F3F3F4FE1F1A7
:100DF0004423D1F141E00E947D022FB7F894809105
:100E0000F3039091F403A091F503B091F6032FBF83
:100E10008093EE039093EF03A093F003B093F1035C
:100E20008091EA039091EB038930910571F410925F
:100E3000EB031092EA038091EC039091ED0301968D
:100E40009093ED038093EC0305C001969093EB0320
:100E50008093EA038091EC039091ED030A9721F4CB
:100E6000D0931701C09316010E9473025CCFEBEF81
:100E7000F3E01382128288EE93E0A0E0B0E0848376
:100E80009583A683B7838CEF92E09183808385EC72
:100E900090E09587848784EC90E09787868780EC44
:100EA00090E0918B808B81EC90E0938B828B82EC35
:100EB00090E0958B848B86EC90E0978B868B118EDF
:100EC000128E138E148E08950E947107B7FF089535
:100ED000821B930B0895EE0FFF1F0590F491E02DF8
:100EE0000994A29FB001B39FC001A39F700D811D03
:100EF0001124911DB29F700D811D1124911D089523
:0E0F000081E090E0F8940C948507F894FFCF00
:100F0E000800FFFFFFFFFFFFFFFF010002000300CD
:100F1E0004006C016C01FFFFF60E7807DE05DE0B98
:100F2E004106EC07480D300BE008F609FE010303FD
:100F3E00CD02CF0301028502850279020303FE0171
:100F4E00FE010102CD02CF030102310249028502E8
:100F5E000102FE01FE0101024B03CF0301027902E1
:100F6E00490279020102FE01FE01010279024902E3
:100F7E0085020102CD02CD020102FE010102030330
:100F8E008F03FE01FE01FC00FC00780078003000AB
:100F9E00010203030F039E01CE01E400F00078006E
:100FAE0078003000300078007800FC00FC00FC0077
:100FBE00FE01FF03CF038601FE010303CD02CF0323
:100FCE0001020102010201020303FE01FE010303FD
:100FDE00CD02CF0301020102FD02FD020303FE0159
:100FEE00FE010303CD02CD02050205023102790294
:100FFE000303FE01FC0104010401040104010401C8
:10100E00040104010401FC01100030005000100026
:10101E00100010001000100010007C00FC010400F5
:10102E0004000400FC010001000100010001FC01AC
:10103E00FC01040004000400FC0104000400040090
:10104E000400FC010401040104010401FC0104007C
:10105E000400040004000400FE0100010001000170
:10106E00FE010200020002000200FE01FE0100016C
:10107E0000010001FE010201020102010201FE0156
:10108E00FF00020004000800100020004000800055
:10109E0000010002FC008400840084008400FC0037
:1010AE00840084008400FC00FC0084008400840022
:1010BE008400FC00040004000400FC00FD03F403A3
:1010CE00EA03E103D703CE03C403BB03B303AA03AE
:1010DE0000000000000000010000010000000101FE
:1010EE0000010000000100010001010000010101EA
:1010FE0001000000010000010000000004026D016B
:10110E009B015102CC01AA01BE0107080E0A03047D
:10111E0005060D0A004E65772070617373776F7246
:10112E0064206973207361766564207375636365EB
:10113E00737366756C6C7900456E746572206E659E
:10114E00772070617373776F7264005475726E6579
:10115E006420696E746F20456D6F6A69206D6F64CF
:10116E0065005475726E656420696E746F204E75DD
:0C117E006D62657273206D6F6465000087
:107E0000112484B714BE81FFF0D085E080938100F7
:107E100082E08093C00088E18093C10086E0809377
:107E2000C20080E18093C4008EE0C9D0259A86E02C
:107E300020E33CEF91E0309385002093840096BBD3
:107E4000B09BFECF1D9AA8958150A9F7CC24DD24C4
:107E500088248394B5E0AB2EA1E19A2EF3E0BF2EE7
:107E6000A2D0813461F49FD0082FAFD0023811F036
:107E7000013811F484E001C083E08DD089C08234E0
:107E800011F484E103C0853419F485E0A6D080C0E4
:107E9000853579F488D0E82EFF2485D0082F10E0AE
:107EA000102F00270E291F29000F111F8ED06801E7
:107EB0006FC0863521F484E090D080E0DECF843638
:107EC00009F040C070D06FD0082F6DD080E0C81688
:107ED00080E7D80618F4F601B7BEE895C0E0D1E017
:107EE00062D089930C17E1F7F0E0CF16F0E7DF06D8
:107EF00018F0F601B7BEE89568D007B600FCFDCFD4
:107F0000A601A0E0B1E02C9130E011968C91119780
:107F100090E0982F8827822B932B1296FA010C0160
:107F200087BEE89511244E5F5F4FF1E0A038BF0790
:107F300051F7F601A7BEE89507B600FCFDCF97BE46
:107F4000E89526C08437B1F42ED02DD0F82E2BD052
:107F50003CD0F601EF2C8F010F5F1F4F84911BD097
:107F6000EA94F801C1F70894C11CD11CFA94CF0C13
:107F7000D11C0EC0853739F428D08EE10CD085E9AC
:107F80000AD08FE07ACF813511F488E018D01DD067
:107F900080E101D065CF982F8091C00085FFFCCF94
:107FA0009093C60008958091C00087FFFCCF809118
:107FB000C00084FD01C0A8958091C6000895E0E648
:107FC000F0E098E1908380830895EDDF803219F02E
:107FD00088E0F5DFFFCF84E1DECF1F93182FE3DFCA
:107FE0001150E9F7F2DF1F91089580E0E8DFEE27F6
:047FF000FF270994CA
:027FFE00040479
:0400000300007E007B
:00000001FF
